:020000040800F2
:10000000FF4F0020F91000084111000841110008BD
:1000100041110008411100084111000800000000D2
:100020000000000000000000000000004111000876
:1000300041110008000000004111000841110008B2
:100040004111000841110008411100084111000848
:100050004111000841110008290C00084111000855
:100060004111000841110008411100084111000828
:100070004111000841110008411100084111000818
:100080004111000841110008411100084111000808
:1000900041110008411100084111000841110008F8
:1000A0004111000841110008CD0E0008411100085F
:1000B00041110008411100084111000841110008D8
:1000C00041110008411100084111000841110008C8
:1000D00041110008411100084111000841110008B8
:1000E0004111000841110008411100080000000002
:1000F0000000000000000000000000000000000000
:0C01000000000000000000005FF808F1A3
:10010C0010B5054C237833B9044B13B10448AFF345
:10011C0000800123237010BD0800002000000000A7
:10012C008C11000808B5034B1BB103490348AFF30E
:10013C00008008BD000000000C0000208C1100089D
:10014C00F7222DE9F04F00270E4685B004AB03F8DB
:10015C00092D194601220546EC20CDE9027700F065
:10016C0055FA02A90822ED2000F082FA9DF80C2025
:10017C009DF80B109DF80D30120142EA01323188C6
:10018C0042EA1312C1EB121303FB03F04F00B6F952
:10019C000210C7EBD20201FB02F2011342F234103F
:1001AC00B6F90430002A03FB01F3B8BF02F2FF7268
:1001BC00002BB8BF03F57F534FEAE222B8BF3F33A1
:1001CC0002EBA33303EB830111F1800248BF01F270
:1001DC007F1211128142A8BF01465F10A7F57A4722
:1001EC00B81000FB00F0B6F90820B6F90AB007FB0E
:1001FC0002F24FEA603A0AFB0BFA521002EBEA02E7
:10020C009214B6F806A002F500420AFB02F2DFF8DF
:10021C0090A1BDF80EC051459CFA9CFCB8BF51464C
:10022C00D2131FFA8CFC9DF808809DF809909DF85C
:10023C000AE073623BD0B6F90E40C01207FB04F71C
:10024C00B6F910407F0004FB0074B6F90C704FEA4D
:10025C001E1E4EEA09193F0407EBA40749EA0838A9
:10026C004D4C08EB273804FB08F404F1434404F527
:10027C00A004002CABBF6400B4FBF2F4B4FBF2F4AA
:10028C006400E20802FB02F0B6F91420B6F916700D
:10029C004FEA940E400B02FB0EF207FB00F05213D8
:1002AC00B6F9127002EB20323A4404EB2214B6F980
:1002BC001E70B6F920003F05A3F59632C7EB8C33C0
:1002CC0002FB1033307F96F9227002FB00F002FB28
:1002DC0007F213F5804344BF03F5FF437F33002837
:1002EC00B8BF00F2FF70002AB8BF02F2FF32C01292
:1002FC0000F50040921202FB00F2002AB8BF02F295
:10030C00FF32B6F91A00921202F5001200FB02F24B
:10031C0012F5005244BF02F57F523F329213DB13A9
:10032C0003FB02F31A46002BBCBF03F5FF427F32DE
:10033C00D21302FB02F2307ED21100FB02F2002A31
:10034C00B8BF0F32A3EB221323EAE373B3F1C85FF8
:10035C00A8BF4FF0C85341F6B0521B139B0A632B36
:10036C0028BF632302FB04F402F19842A2F5580261
:10037C00A2F68952AB60A2FB0423E41A03EB5403EC
:10038C00064A1B0C0533A2FB0323DB08C5E900312D
:10039C0005B0BDE8F08F00BFCBF3FFFFCDCCCCCCCC
:1003AC0060F0FFFF88220023F0B58BB00AAD05F892
:1003BC00252D044629460122EC200193CDE9033377
:1003CC00CDE90533CDE90733ADF82430CDF807304E
:1003DC0000F01CF903A91A22ED2000F049F9E123E1
:1003EC0029460122EC208DF8033000F00FF901A909
:1003FC000722ED2000F03CF99DF80D309DF80F60C0
:10040C009DF811709DF80C009DF80E109DF81020B1
:10041C009DF8135040EA032041EA06219DF8123062
:10042C009DF8156042EA07229DF8147043EA0523F3
:10043C0047EA06279DF817509DF816609DF819C0DD
:10044C0046EA05269DF81850208045EA0C259DF8B3
:10045C001A009DF81BC0618040EA0C209DF81C100E
:10046C009DF81DC0A28041EA0C219DF81E209DF82C
:10047C001FC0E38042EA0C229DF820309DF821C079
:10048C00278143EA0C236681A581E0812182628267
:10049C00A3829DF823509DF822009DF808309DF80A
:1004AC0005209DF8041040EA05209DF807C09DF832
:1004BC00097041EA02219DF825609DF80650E08202
:1004CC0003F00F029DF80A001B0942EA0C1243EAE2
:1004DC000713267661832577E283238484F8220030
:1004EC000BB0F0BD00B5074B83B093E803000622B8
:1004FC000090ADF80410EC20694600F087F803B0CA
:10050C005DF804FBA411000810B500230E2482B082
:10051C00032201A9D020ADF804408DF8063000F07C
:10052C0075F802B010BD00BF002330B585B004A92A
:10053C00044601F8093D0122D0200293CDF80B307E
:10054C0000F064F802A90722D12000F091F89DF880
:10055C0008209DF809309DF80A509DF80B009DF875
:10056C000C10227063709DF80D209DF80E30A57054
:10057C00E07021716271A37105B030BD002370B5BC
:10058C000578447882B08278C17806798DF801506C
:10059C008DF80240457984798DF803208DF804108C
:1005AC0008226946D0208DF805608DF806508DF82C
:1005BC0007408DF8003000F029F802B070BD00BF84
:1005CC000F4A10489169104B41F009019161016883
:1005DC0041F05D410160D16941F40011D1615A686B
:1005EC0042F008025A60DA6942F03202DA611A6AA1
:1005FC0022F036021A621A6842F001021A60704741
:10060C0000100240000C014000540040174B30B465
:10061C001D461C6844F480641C601C6844F480749F
:10062C001C606B69DB07FCD5104C6B692861636936
:10063C009D07FCD50B78012A6069A06923610AD952
:10064C00501E0A4A084411F8013F136153691C06F5
:10065C00FCD58142F7D1054A53695B07FCD530BC08
:10066C00136843F400731360704700BF00540040DC
:10067C00164B30B41D461C6844F480641C601C6826
:10068C0044F480741C606B69DC07FCD50F4C6B69FF
:10069C00286163699807FCD56369A3695AB10B4853
:1006AC000139012A09D043695B06FCD50369013A7B
:1006BC0001F8013FF5D130BC7047036823F4806327
:1006CC000360036843F400730360ECE700540040DC
:1006DC0030B50D4683B002AC04F8010D2146012261
:1006EC004020FFF793FF9DF80730214623F00403C9
:1006FC00012240208DF80730FFF788FF284600F0D4
:10070C0045F903B030BD00BF034670B54BF68C45C0
:10071C003D2242F68C4644F6CC4419788CB08DF8C8
:10072C0007105978ADF814508DF80910997C5D7A42
:10073C008DF80B1099788DF819508DF80D10D9781B
:10074C00DD7A8DF80F109979ADF804608DF81610DC
:10075C00D9798DF806208DF81710197A8DF80820A4
:10076C008DF81810997A8DF80A208DF81A102049F6
:10077C008DF80C208DF80E208DF81E208DF81B5056
:10078C00ADF81C400491197B5D7BDC7C9E7B8DF865
:10079C001F108DF82020197D8DF824208DF826202F
:1007AC008DF82A208DF82C208DF821501A7CDD7BB9
:1007BC005B7C8DF822408DF828408DF827508C20DA
:1007CC008DF823108DF829108DF825608DF82B20CD
:1007DC008DF82D3001AC0DF12D0501E014F8010F51
:1007EC002521FFF775FFAC42F8D10CB070BD00BFEE
:1007FC002D0D2D0D0346F0B54BF68C473D222D21CA
:10080C0042F68C4C44F6CC4540F62D541E788DB0F7
:10081C008DF807609E7DADF814708DF808605E7BD6
:10082C001F798DF809609E7B8DF811708DF80B6027
:10083C009E789F798DF80D60DE7B8DF813708DF8A6
:10084C000F60DE781F7D8DF810605E798DF80610D4
:10085C008DF81260DE7D8DF80C108DF80A208DF865
:10086C000E208DF818208DF81660ADF804C05E7D52
:10087C008DF817708DF81A108DF81E2059788DF898
:10088C0020208DF822201A7C8DF81B108DF81F204B
:10089C00597C9A7C8DF821108DF82320D9791A7AFD
:1008AC008DF819608DF826105E7A8DF828108DF869
:1008BC002720997A8DF82920DA7A1B7BADF81C5009
:1008CC00ADF824408C208DF82A608DF82B108DF813
:1008DC002C208DF82D3001AC0DF12D0501E014F814
:1008EC00010F2521FFF7F4FEAC42F8D10DB0F0BD9D
:1008FC002DE9F04192B06F4649F6404000F046F8C1
:10090C004FF0640841F2040C4FF4BE6E134C04AE6D
:10091C0094E80F0007C710343B800FCC0FC60FCCE8
:10092C000FC60FCC0FC694E80300654686E803009B
:10093C00CDE904C8CDF834E00DF1FF3405AE0DF16E
:10094C000D0701E056F8045B14F8010F2946FFF778
:10095C00BFFEBC42F6D112B0BDE8F081AC1100086C
:10096C00094B1A46196841F48031196013689903D0
:10097C00FCD55368044943F0010353604B685B0793
:10098C00FCD500F059BB00BF001002406FF07F4255
:10099C000F4B10B41B680F4C0F49A4FB03435B0DAA
:1009AC0000FB03F0904228BF10460A4648600B68D3
:1009BC0043F001030B601368DB03FCD5136810BC18
:1009CC0023F003031360936803F07F439360704735
:1009DC000400002083DE1B4310E000E02DE9F04F03
:1009EC0085B004AC04E90E00029B8D27002B4FF060
:1009FC007D0EB4BF4FF0DD0B4FF0BD0B5D264FF0FD
:100A0C003D08DD244D216D224FF0ED0A4FF0FD091C
:100A1C00002B2B4DB8BF5B420533AC46A5FB033511
:100A2C00877280F80CE0019FDDF80CE0467080F8CE
:100A3C000680EE0880F800B080F802A080F80490E0
:100A4C00C470047241714172C271C27200F10F051F
:100A5C0000F10C08ACFB0634ACFB0731ACFB0E32DE
:100A6C00E40804EB8403C908D208A6EB430601EBA7
:100A7C00810902EB82033601AEEB430346F00D060F
:100A8C00A7EB490705F801693F011B0147F00D076A
:100A9C0043F00D03A8452F7126460F46EB71964681
:100AAC00D8D1427B037D002A0CBF2D223D22002B86
:100ABC000CBF2D233D238275C37505B0BDE8F08FA7
:100ACC00CDCCCCCCF0B58FB06B4605464FF02D0C91
:100ADC00FD274FF0AD0E2C4E03AC83E806000FCE75
:100AEC000FC40FCE0FC496E8070003C49DF8021084
:100AFC009DF8013001F0300040F00D0085F813C076
:100B0C002F75228085F812E09DF804709DF8056021
:100B1C009DF806409DF803202870090103F0700031
:100B2C000DF1380C1B0140F00D0043F00D0341F0AA
:100B3C000D016244A870EB7069702D3AAB1D05F184
:100B4C000C0012F8071B03F8011B8342F9D107F0C4
:100B5C00300343F00D0306F010022B733F0124F019
:100B6C000F033601240147F00D0742F00D0246F049
:100B7C000D0643F00D0344F00D046F73AA73EE736E
:100B8C002B746C740FB0F0BDF411000810B5204933
:100B9C00204A0B788AB00133DBB2A2FB0302D208E5
:100BAC0002EB8202A3EB4203DBB2052B01AC0B7010
:100BBC0020464FF0000315D801930493CDF807306D
:100BCC00CDE90533CDE907338DF82430FFF7ACFCC4
:100BDC0094E8060004A8FFF775FF04A8FFF794FD3E
:100BEC000AB010BD0C4901930493CDE90233CDE951
:100BFC000533CDE907330993FFF7A2FA94E80E0009
:100C0C0004A8FFF7EBFE04A8FFF7F4FD0AB010BD33
:100C1C0053000020CDCCCCCC2400002008B5FFF72D
:100C2C00B5FF0122014B5A6108BD00BF0004014011
:100C3C0010B50B4C25212078C00040F0040000F0CA
:100C4C00FC00FFF745FD23782521BDE810409801F5
:100C5C0040EAC30060F07B0000F0FC00FFF738BDF9
:100C6C000000002010B5084B25211B780C20012B0F
:100C7C000CBFDC24CC24FFF72BFD2046BDE8104034
:100C8C002521FFF725BD00BF0000002010B50E4B3D
:100C9C001B78033BDBB2042B12D80C4AD05C04014A
:100CAC0044F00C0420F00F00E4B240F00C002521BD
:100CBC00FFF70EFD2046BDE810402521FFF708BDCB
:100CCC002C248C20F3E700BF000000202C1200081D
:100CDC00002330B572498BB00C78724A01AD033CDD
:100CEC0007CA049385E80700CDE90533CDE907333E
:100CFC008DF82430042C00F2B280DFE804F02B4B8A
:100D0C005A8F03006425684B684A9879040900F0EF
:100D1C000F0104EB8404013101EB4401C9B2A2FBC5
:100D2C000102520905FB12126149D2B2A1FB020168
:100D3C00C90801EB8100A2EB400202EB01129A718F
:100D4C0093E8060004A8FFF7BDFE04A8FFF7DCFC3F
:100D5C000BB030BD544B57485978554C0D0901F028
:100D6C000F0205EB8505013202EB4502D2B2A0FB66
:100D7C0002014909C1EB0111A2EB8102D2B2A4FB21
:100D8C000201C90801EB8100A2EB400202EB011247
:100D9C005A70D5E7444B484AD978A2FB0102881A0D
:100DAC0002EB50029208C2EBC2028A1A0132DA70CC
:100DBC00C6E73D4B5A799879110902F00F0201EB05
:100DCC008104511E01EB4401C9B204090AAA0A4468
:100DDC0000EB440012F8245C820703D1012904BF04
:100DEC006A1CD5B21879324C020902EB820200F06F
:100DFC000F0000EB4202D1B2B1FBF5F205FB12126F
:100E0C00013202F0FF02A4FB0201C90801EB8100D0
:100E1C00A2EB400202EB01121A7191E7224B274818
:100E2C005979234C0A0902EB820501F00F0202EBFF
:100E3C004502D2B2A0FB0201C90801EB4101A2EBB1
:100E4C008102013202F0FF02A4FB0201C90801EB8E
:100E5C008100A2EB400202EB01125A7170E7124BB7
:100E6C0016489978124C0D0901F00F0205EB850517
:100E7C00013202EB4502D2B2A0FB0201090901EBDF
:100E8C004101A2EBC102D2B2A4FB0201C90801EBE1
:100E9C008100A2EB400202EB01129A7050E700BFF6
:100EAC0000000020201200084C0000201F85EB5190
:100EBC00CDCCCCCC8988888825499224ABAAAAAA07
:100ECC004022384BC3F88020BFF34F8FBFF36F8F96
:100EDC00354B1A6952061BD570B500251A69334C6F
:100EEC0022F040021A615A6A5D6292B2012A86B0FF
:100EFC00237809D9B2F5FA7F0FD2012B2CD9FFF741
:100F0C00E7FEFFF7C3FE2378012B20D006B070BD9F
:100F1C00264B1B78012B16D07047012B2AD0072BA0
:100F2C0021D0002BF2D0224AA2FB0312991A02EB19
:100F3C0051029208C2EBC2029B1A01332370FFF7D5
:100F4C00A5FE2378E0E74022164B1A60704740223A
:100F5C00144B1A6006B070BDC3F101032370FFF788
:100F6C0067FE2378D0E7FFF77DFE1248FFF706FBFC
:100F7C002378D6E70F4ECDE900553046CDE9025522
:100F8C0004958DF81450FFF7CFFA357096E80600EB
:100F9C006846FFF797FD6846FFF7B6FBFFF762FE62
:100FAC002378BEE700E100E0002C014000000020A7
:100FBC00254992244C00002008B5FFF7D1FC1748B6
:100FCC0017494268174B42F0007242608A6942F03E
:100FDC0004028A611A6822F00C021A601A6842F044
:100FEC0008021A60DA6842F00102DA60FFF7E8FAE8
:100FFC00FFF78AFAFFF77CFCFFF774FA0A48FFF751
:10100C00D1F900F047F80122084B1A609A6040228F
:10101C00074B1A604FF080621A60FEE70000014037
:10102C000010024000080140240000200004014090
:10103C0000E100E0704700BF114A536803F00C0355
:10104C00082B0ED153685168C3F38343C90303F1D2
:10105C00020311D5526892030ED40A4A02FB03F321
:10106C0000E0084B064A084852680849C2F30312CC
:10107C00825CD3400B607047054A02FB03F3F1E737
:10108C000010024000127A00341200080400002004
:10109C0000093D00F0B44FF42077202650250124A0
:1010AC0040200F4A936943F4006343F005039361B6
:1010BC00A2F58432536823F00C0353605168094B3A
:1010CC0041F008015160084A9A629F611E629D605E
:1010DC009A6842F005029A601C60D860F0BC7047B8
:1010EC0000100240002C01407F380100002103E079
:1010FC000B4B5B58435004310A480B4B42189A4235
:10110C00F6D30A4A02E0002342F8043B084B9A4209
:10111C00F9D3FFF78FFF00F00FF8FFF74DFF704783
:10112C004C120008000000200800002008000020DD
:10113C0054000020FEE7000070B500250C4E0D4C4D
:10114C00A41BA410A54209D100F01AF800250A4EE0
:10115C000A4CA41BA410A54205D170BD56F825302D
:10116C0098470135EEE756F8253098470135F2E7F8
:10117C0044120008441200084412000848120008E7
:10118C00F8B500BFF8BC08BC9E467047F8B500BF68
:08119C00F8BC08BC9E46704738
:1011A400F5B0F201F4B700003C3C3C2C2C8C0C8CC8
:1011B4000C1C0C6C0CCC0000250000002500000069
:1011C4002500000025000000250000002500000087
:1011D4002500000025000000250000002500000077
:1011E4002500000025000000250000002500000067
:1011F4004D5D5D5D4D5D5DDD4D7D4D6D3D3D6D7DBB
:101204006D6D7D6D7DFD5D5D8D2D1D5D6D6D6D7DEA
:101214006D7D6DED5D4D5D9D4DED00001F1C1F1E30
:101224001F1E1F1F1E1F1E1F858BC4C7CA00000060
:101234000000000000000000010203040607080982
:04124400310100086C
:041248000D0100088C
:08124C00010000000024F40081
:04000005080010F9E6
:00000001FF
